:100000000C94B1000C94CE000C94CE000C94CE0055
:100010000C94CE000C94CE000C94CE000C94CE0028
:100020000C94CE000C94CE000C94CE000C94CE0018
:100030000C94CE000C94CE000C94CE000C94CE0008
:100040000C9403080C94CE000C94CE000C94CE00BB
:100050000C94CE000C94CE000C94CE000C94CE00E8
:100060000C94CE000C94CE0000407A10F35A00A0FD
:10007000724E18090010A5D4E80000E87648170071
:1000800000E40B54020000CA9A3B000000E1F505B1
:10009000000080969800000040420F000000A086FB
:1000A00001000000102700000000E803000000002D
:1000B0006400000000000A000000000001000000D1
:1000C00000002C76D888DC674F0823DFC1DFAE59EB
:1000D000E1B1B796E5E3E453C63AE651997696E87E
:1000E000E6C28426EB898C9B62ED407C6FFCEFBC02
:1000F0009C9F40F2BAA56FA5F490055A2AF75C932D
:100100006B6CF9676DC11BFCE0E40D47FEF520E662
:10011000B500D0ED902E0300943577050080841E45
:10012000080000204E0A000000C80C333333330FA0
:10013000986E12831141EF8D2114893BE65516CF3D
:10014000FEE6DB18D1844B381BF77C1D901DA4BB49
:10015000E424203284725E228100C9F124ECA1E5FE
:100160003D2711241FBECFEFD8E0DEBFCDBF12E088
:10017000A0E0B1E0EAE3FAE202C005900D92AA33F2
:10018000B107D9F712E0AAE3B2E001C01D92A2368E
:10019000B107E1F70E9403010C941B150C940000B9
:1001A000EF92FF920F931F9308C0C801B70120E0A0
:1001B00030E044EB53E40E94CD097B018C0120E048
:1001C00030E044E353E40E94D10B181674F30AC0E4
:1001D000C801B70120E030E044EB53E40E94FE097F
:1001E0007B018C01C801B70120E030E044E353EC0F
:1001F0000E94310C87FDECCFB701C8011F910F9110
:10020000FF90EF9008952F923F924F925F926F92DE
:100210007F928F929F92AF92BF92CF92DF92EF9296
:10022000FF920F931F93DF93CF93CDB7DEB7C85ED6
:10023000D0400FB6F894DEBF0FBECDBF60E071EEC8
:1002400080E090E00E9441030E94AE030E942808D3
:100250000E9499050E943008CD52DF4F6883798350
:100260008A839B83C35DD0400F2EF0E04F2EF0E0D9
:100270005F2EF0E06F2EF0E07F2EF02D5301420153
:1002800073016201CE010196BE016B5F7F4FAE012B
:10029000475F5F4F0E9443060E943008C153DF4F03
:1002A000688379838A839B83CF5CD040CD52DF4FB4
:1002B000288139814A815B81C35DD040621B730B09
:1002C000840B950B0E94130D20E030E04AE754E4C4
:1002D0000E94250BC553DF4F688379838A839B83F4
:1002E000CB5CD04089819A81AB81BC81C152DF4F08
:1002F00088839983AA83BB83CF5DD040BC01CD01A5
:10030000C553DF4F288139814A815B81CB5CD04066
:100310000E942B0A9B01AC01C301B2010E94FE099D
:100320002B013C012D813E814F815885C552DF4F05
:10033000288339834A835B83CB5DD04089859A8546
:10034000AB85BC85C952DF4F88839983AA83BB8361
:10035000C75DD0400AC0C301B20120E030E044EBE9
:1003600053E40E94CD092B013C01C301B20120E0FE
:1003700030E044E353E40E94D10B181664F30AC042
:10038000C301B20120E030E044EB53E40E94FE09D7
:100390002B013C01C301B20120E030E044E353EC07
:1003A0000E94310C87FDECCFCB51DF4F4882C55EF8
:1003B000D040CA51DF4F5882C65ED040C951DF4F8E
:1003C0006882C75ED040C851DF4F7882C85ED04097
:1003D000C552DF4F688179818A819B81CB5DD04096
:1003E000C553DF4F288139814A815B81CB5CD04086
:1003F0000E942B0A9B01AC01C501B4010E94FE09B9
:1004000008C0C501B40120E030E044EB53E40E9491
:10041000CD094B015C0120E030E044E353E40E944D
:10042000D10B181674F30AC0C501B40120E030E006
:1004300044EB53E40E94FE094B015C01C501B40189
:1004400020E030E044E353EC0E94310C87FDECCF18
:10045000382C292CCD51DF4FA882C35ED040CC511F
:10046000DF4FB882C45ED040C952DF4F68817981C6
:100470008A819B81C75DD040C553DF4F2881398178
:100480004A815B81CB5CD0400E942B0A9B01AC016E
:10049000C701B6010E94FE0908C0C701B60120E0ED
:1004A00030E044EB53E40E94CD096B017C0120E075
:1004B00030E044E353E40E94D10B181674F30AC0F1
:1004C000C701B60120E030E044EB53E40E94FE098E
:1004D0006B017C01C701B60120E030E044E353EC3E
:1004E0000E94310C87FDECCFC152DF4F68817981CA
:1004F0008A819B81CF5DD04046E023E08E01035F7F
:100500001F4F0E94DA0F6D817E818F81988546E0B2
:1005100023E08E01095E1F4F0E94DA0F69857A85FC
:100520008B859C8546E023E08E010F5D1F4F0E9466
:10053000DA0FCB51DF4F2881C55ED040CA51DF4F63
:100540003881C65ED040C951DF4F4881C75ED04078
:10055000C851DF4F5881C85ED040B901CA0146E09A
:1005600023E08E010B5C1F4F0E94DA0F232D322DEA
:10057000CD51DF4F4881C35ED040CC51DF4F588111
:10058000C45ED040B901CA0146E023E08E01015C9F
:100590001F4F0E94DA0FB601C70146E023E08E012B
:1005A000075B1F4F0E94DA0FC553DF4F68817981C7
:1005B0008A819B81CB5CD04046E023E08E01055DC3
:1005C0001F4F0E94DA0FADB7BEB752970FB6F8941F
:1005D000BEBF0FBEADBFEDB7FEB7319623E530E02D
:1005E0002C0F3D1F12963C932E93119740E051E043
:1005F0005383428385E390E08C0F9D1F9583848312
:10060000AFE3B0E0AC0FBD1FB783A68329E430E0B1
:100610002C0F3D1F318720874DE050E04C0F5D1FB0
:100620005387428787E190E08C0F9D1F95878487D1
:10063000A1E2B0E0AC0FBD1FB787A687118B008B7E
:100640000E941C104DB75EB74E5E5F4F0FB6F89418
:100650005EBF0FBE4DBFCE018D5A9F4F0E947B03E0
:10066000C153DF4F88819981AA81BB81CF5CD04083
:10067000CD52DF4F88839983AA83BB83C35DD0406B
:1006800001CE9B01AC0184E0220F331F441F551F94
:100690008A95D1F760E074E284EF90E00E94810FC8
:1006A000215030403093C5002093C40088E08093EF
:1006B000C10086E08093C20088EE93E020E931E03B
:1006C000F9013197F1F70197D9F70895982F8091A3
:1006D000C00085FFFCCF9093C6000895FC0107C0C1
:1006E0008091C00085FFFCCF31969093C600908129
:1006F0009923B1F708950E946E038091C00085FF91
:10070000FCCF8DE08093C6008091C00085FFFCCFB8
:100710008AE08093C60008950F931F93DF93CF93D1
:10072000CDB7DEB72A970FB6F894DEBF0FBECDBFA8
:100730008E010F5F1F4FB8014AE050E00E94FB0F8F
:10074000C8010E946E032A960FB6F894DEBF0FBE52
:10075000CDBFCF91DF911F910F9108951092B900F5
:1007600088E48093B800089584EA8093BC00809167
:10077000BC0087FFFCCF089584E98093BC000895F6
:100780008093BB0084E88093BC008091BC0087FF0D
:10079000FCCF089584EC8093BC008091BC0087FF5F
:1007A000FCCF8091BB00089584E88093BC008091C9
:1007B000BC0087FFFCCF8091BB000895982F84EA8E
:1007C0008093BC008091BC0087FFFCCF990F909371
:1007D000BB0084E88093BC008091BC0087FFFCCF05
:1007E0006093BB0084E88093BC008091BC0087FFCD
:1007F000FCCF4093BB0084E88093BC008091BC0098
:1008000087FFFCCF84E98093BC000895982F84EA89
:100810008093BC008091BC0087FFFCCF892F880F9C
:100820008093BB0084E88093BC008091BC0087FF6C
:10083000FCCF6093BB0084E88093BC008091BC0037
:1008400087FFFCCF84EA8093BC008091BC0087FFC7
:10085000FCCF990F91609093BB0084E88093BC001B
:100860008091BC0087FFFCCF84E88093BC0080911E
:10087000BC0087FFFCCF8091BB0094E99093BC0043
:100880000895982FDA0184EA8093BC008091BC001F
:1008900087FFFCCF892F880F8093BB0084E880936B
:1008A000BC008091BC0087FFFCCF6093BB0084E854
:1008B0008093BC008091BC0087FFFCCF84EA8093CA
:1008C000BC008091BC0087FFFCCF990F9160909392
:1008D000BB0084E88093BC008091BC0087FFFCCF04
:1008E00030E0422F50E04150504064EC0DC0609326
:1008F000BC008091BC0087FFFCCF8091BB00FD0154
:10090000E30FF11D80833F5F832F90E084179507ED
:1009100074F384E88093BC008091BC0087FFFCCF17
:100920008091BB00A20FB11D11978C9384E9809335
:10093000BC0008956F927F928F929F92AF92BF9268
:10094000CF92DF92EF92FF920F931F9339014A01EA
:10095000A0904602B0904702C0904802D090490251
:10096000A60195010E94CD0927E937E44AEC5EE330
:100970000E942B0A9B01AC01C601B5010E94FE0931
:100980006093460270934702809348029093490215
:10099000A0904A02B0904B02C0904C02D0904D0201
:1009A000C401B301A60195010E94CD0927E937E4EE
:1009B0004AEC5EE30E942B0A9B01AC01C601B50123
:1009C0000E94FE0960934A0270934B0280934C028E
:1009D00090934D02A0904E02B0904F02C0905002F2
:1009E000D0905102C801B701A60195010E94CD091E
:1009F00027E937E44AEC5EE30E942B0A9B01AC0135
:100A0000C601B5010E94FE0960934E0270934F0229
:100A100080935002909351021F910F91FF90EF909D
:100A2000DF90CF90BF90AF909F908F907F906F900E
:100A300008954F925F926F927F928F929F92AF92A2
:100A4000BF92CF92DF92EF92FF920F931F93DF93AB
:100A5000CF9300D000D000D0CDB7DEB74C013B0122
:100A60002A0188E663E4AE014F5F5F4F26E00E94F3
:100A700041049B8180E0EC80FF24E82AF92A9D81D3
:100A800080E0AE80BB24A82AB92A798160E02A815F
:100A900030E0622B732B882777FD8095982F0E947A
:100AA000610C20E030E043E053E40E94250BF401A8
:100AB00060837183828393830027F7FC0095102F56
:100AC000C801B7010E94610C20E030E043E053E42C
:100AD0000E94250BF3016083718382839383CC246E
:100AE000B7FCC094DC2CC601B5010E94610C20E06B
:100AF00030E043E053E40E94250BF20160837183F0
:100B00008283938326960FB6F894DEBF0FBECDBFC7
:100B1000CF91DF911F910F91FF90EF90DF90CF90D9
:100B2000BF90AF909F908F907F906F905F904F900D
:100B300008952F923F924F925F926F927F928F9281
:100B40009F92AF92BF92CF92DF92EF92FF920F935C
:100B50001F93DF93CF93CDB7DEB72C970FB6F894E2
:100B6000DEBF0FBECDBF442455240F2EF0E0EF2E84
:100B7000F0E0FF2EF0E00F2FF0E01F2FF02D5701D7
:100B800068013701480180EA282E8FE0382ECE0117
:100B90000196BE016B5F7F4FAE01475F5F4F0E94C2
:100BA0001905C801B70129813A814B815C810E94F6
:100BB000FE097B018C01C601B5012D813E814F816B
:100BC00058850E94FE095B016C01C401B3012985AF
:100BD0003A854B855C850E94FE093B014C01C101B1
:100BE0000197F1F70894411C511C88EE481683E0E8
:100BF000580669F6C801B70120E030E04AE754E43E
:100C00000E94250B6093520270935302809354020A
:100C100090935502C601B50120E030E04AE754E464
:100C20000E94250B609356027093570280935802DE
:100C300090935902C401B30120E030E04AE754E444
:100C40000E94250B60935A0270935B0280935C02B2
:100C500090935D022C960FB6F894DEBF0FBECDBF09
:100C6000CF91DF911F910F91FF90EF90DF90CF9088
:100C7000BF90AF909F908F907F906F905F904F90BC
:100C80003F902F9008954F925F926F927F928F9234
:100C90009F92AF92BF92CF92DF92EF92FF920F930B
:100CA0001F93DF93CF9300D000D000D0CDB7DEB735
:100CB0004C013B012A0188E663E4AE014F5F5F4FC0
:100CC00026E00E9441049B8180E0EC80FF24E82A1A
:100CD000F92A9D8180E0AE80BB24A82AB92A7981B7
:100CE00060E02A8130E0622B732B882777FD8095A6
:100CF000982F0E94610C20E030E043E053E40E9412
:100D0000250B209152023091530240915402509190
:100D100055020E94CD09F40160837183828393831D
:100D20000027F7FC0095102FC801B7010E94610C45
:100D300020E030E043E053E40E94250B209156026E
:100D40003091570240915802509159020E94CD09AA
:100D5000F3016083718382839383CC24B7FCC094B6
:100D6000DC2CC601B5010E94610C20E030E043E0BC
:100D700053E40E94250B20915A0230915B0240916E
:100D80005C0250915D020E94CD09F2016083718383
:100D90008283938326960FB6F894DEBF0FBECDBF35
:100DA000CF91DF911F910F91FF90EF90DF90CF9047
:100DB000BF90AF909F908F907F906F905F904F907B
:100DC00008952F923F924F925F926F927F928F92EF
:100DD0009F92AF92BF92CF92DF92EF92FF920F93CA
:100DE0001F93DF93CF93CDB7DEB760970FB6F8941C
:100DF000DEBF0FBECDBF98878F837A8769875C87F8
:100E00004B8788E66BE3AE014F5F5F4F26E00E94A1
:100E10004104798160E02A8130E0622B732B8827BE
:100E200077FD8095982F0E94610C20E030E040E82B
:100E300058E30E942B0A23EC35EF4CE151E40E9469
:100E40002B0A7B018C017B8160E02C8130E0622BDE
:100E5000732B882777FD8095982F0E94610C20E0E6
:100E600030E040E858E30E942B0A23EC35EF4CE1D8
:100E700051E40E942B0A5B016C017D8160E02E81B0
:100E800030E0622B732B882777FD8095982F0E9486
:100E9000610C20E030E040E858E30E942B0A23EC8C
:100EA00035EF4CE151E40E942B0A3B014C01C80193
:100EB000B70120E030E040EA50E40E94D10B181660
:100EC0007CF4C801B70126E839EC44E95EE30E94EE
:100ED000CD0928EF37E84FE75FE30E942B0A08C0EF
:100EE000C801B7012AE939E949E15EE30E94CD0969
:100EF0006D877E878F87988BC601B50120E030E033
:100F000040EA50E40E94D10B18167CF4C601B501EA
:100F10002CE732EF40EF5DE30E94FE092FEA3FE647
:100F20004FE75FE30E942B0A08C0C601B5012AE023
:100F300037ED43E25CE30E94CD091B012C01C401A3
:100F4000B30120E030E040EA50E40E94D10B1816D3
:100F50007CF4C401B30126EF37E94DEB5EE30E9458
:100F6000CD092AE134E44EE75FE30E942B0A08C072
:100F7000C401B3012AE939E949E15EE30E94CD09E0
:100F80005B016C012D853E854F855889B901CA01E9
:100F90009101A201750186010E949A042D853E856A
:100FA0004F855889C901DA01EF81F88580839183E3
:100FB000A283B383C101D201E985FA85808391833D
:100FC000A283B383C501D601EB85FC858083918321
:100FD000A283B38360960FB6F894DEBF0FBECDBF79
:100FE000CF91DF911F910F91FF90EF90DF90CF9005
:100FF000BF90AF909F908F907F906F905F904F9039
:101000003F902F9008951F920F920FB60F921124C8
:101010008F939F93AF93BF9380915E0290915F02F5
:10102000A0916002B09161020196A11DB11D809353
:101030005E0290935F02A0936002B0936102BF9141
:10104000AF919F918F910F900FBE0F901F901895A9
:1010500014BC83E085BD81E080936E007894089590
:10106000EFB7F89420915E0230915F0240916002E8
:101070005091610266B5EFBF70E080E090E0542FC0
:10108000432F322F2227622B732B842B952B0E9408
:10109000130D2FE632E143E85BE30E942B0A0E9426
:1010A00055089B01AC01CA010895EF92FF920F937E
:1010B0001F937B018C0120E030E040E05FE40E9460
:1010C000010C88238CF0C801B70120E030E040E03B
:1010D0005FE40E94CD090E94BF0C9B01AC0120502F
:1010E00030404040504806C0C801B7010E94BF0CC4
:1010F0009B01AC01B901CA011F910F91FF90EF90C4
:101100000895A0E0B0E0E7E8F8E00C94A30FDC015C
:101110002B01FA019C91923008F439C1EB018881CE
:10112000823008F433C1943069F4843009F02FC15F
:1011300011969C9111978981981709F428C1A1E310
:10114000B1E025C1843009F421C18230A9F4923084
:1011500009F01DC19A01AD0188E0EA010990AE01D4
:10116000E90109929E018150C1F7E201898111963E
:101170009C918923818308C1923009F407C112969A
:101180002D903C901397EB018A819B811496AD9032
:10119000BD90CD90DC901797EC80FD800E811F8173
:1011A0009101281B390BB90137FF04C06627772747
:1011B000621B730B603271050CF061C012161306CE
:1011C0006CF537014801062E04C0969487947794F5
:1011D00067940A94D2F721E030E040E050E004C088
:1011E000220F331F441F551F6A95D2F721503040FC
:1011F000404050402E213F214023512321153105ED
:101200004105510521F021E030E040E050E0790156
:101210008A01E628F728082919293CC0232BD1F197
:10122000260E371E35014601062E04C0969487947B
:10123000779467940A94D2F721E030E040E050E0E0
:1012400004C0220F331F441F551F6A95D2F7215047
:101250003040404050402A213B214C215D21211546
:1012600031054105510521F021E030E040E050E03A
:1012700059016A01A628B728C828D9280BC08215A9
:1012800093052CF01C01AA24BB24650103C0EE24A5
:10129000FF24870111969C91D20111968C91981789
:1012A00009F445C0992339F0A80197012A193B098F
:1012B0004C095D0906C0A60195012E193F09400B96
:1012C000510B57FD08C0118233822282248335835B
:1012D000468357831DC081E0818333822282882721
:1012E0009927DC01821B930BA40BB50B8483958398
:1012F000A683B7830DC0220F331F441F551F2483BD
:1013000035834683578382819381019793838283B8
:101310002481358146815781DA01C9010197A109EC
:10132000B1098F5F9F4FAF4FBF4328F30BC091832D
:1013300033822282EA0CFB1C0C1D1D1DE482F58207
:101340000683178383E0808324813581468157811A
:1013500057FF1AC0C901AA2797FDA095BA2F81701F
:101360009070A070B0705695479537952795822B51
:10137000932BA42BB52B84839583A683B78382817B
:101380009381019693838283DF0101C0D201CD0155
:10139000CDB7DEB7E2E10C94BF0FA0E2B0E0E3ED21
:1013A000F9E00C94AF0F69837A838B839C832D8340
:1013B0003E834F835887E9E0EE2EF12CEC0EFD1EA4
:1013C000CE010196B7010E94B00E8E010F5E1F4F35
:1013D000CE010596B8010E94B00E8A8991E0892756
:1013E0008A8BC701B801AE01475E5F4F0E9481083A
:1013F0000E94DB0DA096E6E00C94CB0FA0E2B0E0DB
:10140000E4E0FAE00C94AF0F69837A838B839C83CA
:101410002D833E834F835887F9E0EF2EF12CEC0E9D
:10142000FD1ECE010196B7010E94B00E8E010F5E27
:101430001F4FCE010596B8010E94B00EC701B8013A
:10144000AE01475E5F4F0E9481080E94DB0DA096AF
:10145000E6E00C94CB0FA0E2B0E0E1E3FAE00C94FC
:10146000A30F69837A838B839C832D833E834F8371
:101470005887CE010196BE01675F7F4F0E94B00E74
:10148000CE010596BE016F5E7F4F0E94B00E99851A
:10149000923088F089898230C8F0943019F4823013
:1014A00051F404C0843029F4923081F481E391E056
:1014B000C6C0923049F420E09A858A89981321E0C9
:1014C0002A87CE010996BBC0823049F420E09A8574
:1014D0008A89981321E02A8BCE014196B0C02D84D1
:1014E0003E844F8458886D887E888F88988CEE243F
:1014F000FF248701AA24BB24650140E050E060E09E
:1015000070E0E0E0F0E0C10181709070892BE9F0BB
:10151000E60CF71C081D191D9A01AB012A0D3B1D95
:101520004C1D5D1D80E090E0A0E0B0E0E614F70403
:101530000805190520F481E090E0A0E0B0E0BA01D0
:10154000A901480F591F6A1F7B1FAA0CBB1CCC1C8A
:10155000DD1C97FE08C081E090E0A0E0B0E0A82A82
:10156000B92ACA2ADB2A3196E032F10549F0660C25
:10157000771C881C991C5694479437942794C3CFA2
:10158000FA85EA892B893C898B859C85280F391F30
:101590002E5F3F4F17C0CA0181709070892B61F098
:1015A00016950795F794E79480E090E0A0E0B0E806
:1015B000E82AF92A0A2B1B2B7695679557954795AC
:1015C0002F5F3F4F77FDE7CF0CC0440F551F661FBD
:1015D000771F17FD4160EE0CFF1C001F111F2150EB
:1015E0003040403090E0590790E0690790E4790777
:1015F00060F32B8F3C8FDB01CA018F779070A07056
:10160000B07080349105A105B10561F447FD0AC0B1
:10161000E114F1040105110529F0405C5F4F6F4FA3
:101620007F4F40781A8EFE1711F081E08A8F4D8F20
:101630005E8F6F8F78A383E0898FCE0149960E94D9
:10164000DB0DA096E2E10C94BF0FA8E1B0E0EBE265
:10165000FBE00C94AB0F69837A838B839C832D838F
:101660003E834F835887B9E0EB2EF12CEC0EFD1E24
:10167000CE010196B7010E94B00E8E010F5E1F4F82
:10168000CE010596B8010E94B00E2985223008F4DB
:101690007EC03989323010F4B8017CC08A859A89BD
:1016A00089278A87243011F0223031F4231709F07A
:1016B0006EC061E371E06EC0343039F41D861E8661
:1016C0001F86188A1C861B8604C0323021F484E0F1
:1016D0008987B7015FC02B853C858B899C89281B36
:1016E000390B3C872B87ED84FE840F851889AD88E4
:1016F000BE88CF88D88CEA14FB040C051D0540F485
:10170000EE0CFF1C001F111F215030403C872B871F
:1017100020E030E040E050E080E090E0A0E0B0E485
:1017200060E070E0EA14FB040C051D0540F0282B76
:10173000392B4A2B5B2BEA18FB080C091D09B695BF
:10174000A79597958795EE0CFF1C001F111F6F5FE3
:101750007F4F6F31710531F7DA01C9018F779070D2
:10176000A070B07080349105A105B10561F427FD2A
:101770000AC0E114F1040105110529F0205C3F4F76
:101780004F4F5F4F20782D873E874F87588BBE0184
:10179000675F7F4FCB010E94DB0D6896EAE00C94F7
:1017A000C70FA8E1B0E0E7EDFBE00C94AF0F698351
:1017B0007A838B839C832D833E834F83588789E074
:1017C000E82EF12CEC0EFD1ECE010196B7010E9411
:1017D000B00E8E010F5E1F4FCE010596B8010E941C
:1017E000B00E8985823040F08989823028F0C701A7
:1017F000B8010E94280F01C08FEF6896E6E00C94B4
:10180000CB0FA8E1B0E0E7E0FCE00C94AF0F6983F8
:101810007A838B839C832D833E834F83588789E013
:10182000E82EF12CEC0EFD1ECE010196B7010E94B0
:10183000B00E8E010F5E1F4FCE010596B8010E94BB
:10184000B00E8985823040F08989823028F0C70146
:10185000B8010E94280F01C08FEF6896E6E00C9453
:10186000CB0FA8E1B0E0E7E3FCE00C94AF0F698395
:101870007A838B839C832D833E834F83588789E0B3
:10188000E82EF12CEC0EFD1ECE010196B7010E9450
:10189000B00E8E010F5E1F4FCE010596B8010E945B
:1018A000B00E8985823040F08989823028F0C701E6
:1018B000B8010E94280F01C081E06896E6E00C9410
:1018C000CB0FA8E0B0E0E7E6FCE00C94AC0F9B0186
:1018D000AC0183E08983DA01C9018827B7FD8395CC
:1018E0009927AA27BB27B82E211531054105510597
:1018F00019F482E089833AC08823A9F0203080E07F
:10190000380780E0480780E8580729F460E070E075
:1019100080E09FEC30C0EE24FF248701E21AF30A36
:10192000040B150B02C079018A018EE1C82ED12C5F
:10193000DC82CB82ED82FE820F831887C801B7015B
:101940000E948C0D01971816190684F4082E04C005
:10195000EE0CFF1C001F111F0A94D2F7ED82FE82CD
:101960000F831887C81AD90ADC82CB82BA82CE01CB
:1019700001960E94DB0D2896E9E00C94C80FACE0BC
:10198000B0E0E5ECFCE00C94B30F69837A838B83C1
:101990009C83CE010196BE016B5F7F4F0E94B00E0B
:1019A0008D81823061F1823050F1843021F48E815A
:1019B000882351F12EC02F81388537FD20C06E81DC
:1019C0002F3131051CF06623F9F023C08EE190E041
:1019D000821B930B29853A854B855C8504C05695FF
:1019E0004795379527958A95D2F76623B1F050959C
:1019F0004095309521953F4F4F4F5F4F0EC020E0EF
:101A000030E040E050E009C02FEF3FEF4FEF5FE7DD
:101A100004C020E030E040E050E8B901CA012C9653
:101A2000E2E00C94CF0FA8E0B0E0E9E1FDE00C9417
:101A3000AB0F7B018C01611571058105910519F4CE
:101A400082E0898360C083E089838EE1C82ED12C37
:101A5000DC82CB82ED82FE820F831887C801B7013A
:101A60000E948C0DFC013197F7FF3BC022273327E2
:101A70002E1B3F0B57016801022E04C0D694C79459
:101A8000B794A7940A94D2F740E050E060E070E089
:101A900081E090E0A0E0B0E004C0880F991FAA1F89
:101AA000BB1F2A95D2F70197A109B1098E219F2169
:101AB000A023B1230097A105B10521F041E050E03A
:101AC00060E070E04A295B296C297D294D835E83A3
:101AD0006F8378878EE190E08E1B9F0B9C838B83B6
:101AE00012C0309781F00E2E04C0EE0CFF1C001FB8
:101AF000111F0A94D2F7ED82FE820F831887CE1A47
:101B0000DF0ADC82CB821A82CE0101960E94DB0DB5
:101B10002896EAE00C94C70FEF92FF920F931F9361
:101B20007B018C0180E0E81680E0F80681E0080780
:101B300080E0180788F48FEFE816F104010511051D
:101B400031F028F088E090E0A0E0B0E017C080E03D
:101B500090E0A0E0B0E012C080E0E81680E0F80677
:101B600080E0080781E0180728F088E190E0A0E015
:101B7000B0E004C080E190E0A0E0B0E020E230E01E
:101B800040E050E0281B390B4A0B5B0B04C0169554
:101B90000795F794E7948A95D2F7F701E75CFE4F33
:101BA0008081281B310941095109C9011F910F91F9
:101BB000FF90EF900895DF92EF92FF920F931F93A3
:101BC000FC01E480F58006811781D180808182301C
:101BD00048F480E090E0A0E1B0E0E82AF92A0A2B7E
:101BE0001B2BA5C0843009F49FC0823021F4EE2461
:101BF000FF24870105C0E114F1040105110519F462
:101C0000E0E0F0E096C0628173819FEF623879076F
:101C10000CF05BC022E83FEF261B370B2A31310561
:101C20002CF020E030E040E050E02AC0B801A701ED
:101C3000022E04C076956795579547950A94D2F77A
:101C400081E090E0A0E0B0E004C0880F991FAA1FD7
:101C5000BB1F2A95D2F70197A109B1098E219F21B7
:101C6000A023B1230097A105B10521F081E090E008
:101C7000A0E0B0E09A01AB01282B392B4A2B5B2B5B
:101C8000DA01C9018F779070A070B070803491052F
:101C9000A105B10539F427FF09C0205C3F4F4F4F24
:101CA0005F4F04C0215C3F4F4F4F5F4FE0E0F0E0DB
:101CB0002030A0E03A07A0E04A07A0E45A0710F05D
:101CC000E1E0F0E079018A0127C06038710564F530
:101CD000FB01E158FF4FD801C7018F779070A070CA
:101CE000B07080349105A105B10539F4E7FE0DC04F
:101CF00080E490E0A0E0B0E004C08FE390E0A0E0DA
:101D0000B0E0E80EF91E0A1F1B1F17FF05C016954D
:101D10000795F794E794319687E016950795F79421
:101D2000E7948A95D1F705C0EE24FF248701EFEFF1
:101D3000F0E06E2F679566276795902F9F77D79471
:101D4000DD24D7948E2F8695492F462B582F5D2959
:101D5000B701CA011F910F91FF90EF90DF90089596
:101D6000FC01DB01408151812281622F6F7770E09D
:101D7000221F2227221F9381892F880F822B282F31
:101D800030E0991F9927991F11969C93119721155F
:101D90003105A9F5411551056105710511F482E080
:101DA00037C082E89FEF13969C938E9312979A0107
:101DB000AB0167E0220F331F441F551F6A95D1F70F
:101DC00083E08C930DC0220F331F441F551F1296C2
:101DD0008D919C911397019713969C938E931297D4
:101DE000203080E0380780E0480780E4580758F347
:101DF00014962D933D934D935C93179708952F3F21
:101E0000310579F4411551056105710519F484E036
:101E10008C93089564FF03C081E08C9312C01C92E0
:101E200010C02F57304013963C932E93129783E0A7
:101E30008C9387E0440F551F661F771F8A95D1F753
:101E4000706414964D935D936D937C9317970895EA
:101E50001F93DC01FB019C91923008F447C0808104
:101E6000823008F443C0943051F411961C918430B0
:101E700099F58181682F70E0611B71093FC0843042
:101E800021F0923031F48230B9F18181882389F1D7
:101E90002DC011961C9111978230F1F08181181795
:101EA000D9F412962D913C911397828193818217D8
:101EB000930794F028173907BCF014968D919D91E3
:101EC0000D90BC91A02D2481358146815781281722
:101ED00039074A075B0718F4112341F00AC082173B
:101EE0009307A407B50740F4112319F061E070E0EF
:101EF00005C06FEF7FEF02C060E070E0CB011F9183
:101F00000895A1E21A2EAA1BBB1BFD010DC0AA1F3A
:101F1000BB1FEE1FFF1FA217B307E407F50720F052
:101F2000A21BB30BE40BF50B661F771F881F991FCD
:101F30001A9469F760957095809590959B01AC0116
:101F4000BD01CF0108952F923F924F925F926F9201
:101F50007F928F929F92AF92BF92CF92DF92EF9239
:101F6000FF920F931F93CF93DF93CDB7DEB7CA1BBA
:101F7000DB0B0FB6F894DEBF0FBECDBF09942A88E5
:101F8000398848885F846E847D848C849B84AA848D
:101F9000B984C884DF80EE80FD800C811B81AA811A
:101FA000B981CE0FD11D0FB6F894DEBF0FBECDBFE5
:101FB000ED010895EF92FF920F931F93F22FF02EF1
:101FC00047FD02C0E4E001C0E4E1242F332727FDF0
:101FD000309537FF03C0309521953F4F4F2D512F3E
:101FE0000F2FEE2E0E941D128F2D912F1F910F91FA
:101FF000FF90EF900895FB019F01E8944230C4F0F8
:102000004532B4F44A3029F497FB1EF4909581953B
:102010009F4F642F77270E940715805D8A330CF04D
:10202000895D8193CB010097A1F716F45DE251938E
:102030001082C9010C946D14AEE0B0E0E2E2F0E170
:102040000C94B10F0D891E8986E08C831A83098355
:102050008FEF9FE79E838D839E01275E3F4FCE01CA
:1020600001966F89788DA9010E9440102F813885D3
:10207000020F131FF80110822E96E4E00C94CD0F8E
:10208000ABE0B0E0E6E4F0E10C94A30F3C012B01DF
:102090005A01FC0117821682838181FD03C06FEF14
:1020A0007FEFC6C19AE0892E1E010894211C311CC5
:1020B000F3012381F20123FD859123FF81912F01FB
:1020C000882309F4B2C1853239F423FD859123FFB9
:1020D00081912F01853229F490E0B3010E947D1493
:1020E000E7CF982FFF24EE249924FFE1FF15D0F0CD
:1020F0009B3269F09C3228F4903259F0933291F47B
:102100000EC09D3249F0903369F441E024C052E0A2
:10211000F52A84E0F82A28C098E0F92A25C0E0E1F1
:10212000FE2A22C0F7FC29C0892F80538A3070F420
:10213000F6FE05C0989C902C1124980E15C0E89CC2
:10214000E02C1124E80EF0E2FF2A0EC09E3229F4A2
:10215000F6FC6BC140E4F42A07C09C3619F450E841
:10216000F52A02C0983649F4F20123FD959123FF28
:1021700091912F01992309F0B8CF892F855483308D
:1021800018F08052833038F444E050E0A40EB51EBD
:102190005FE359830FC0933631F0933779F093356D
:1021A00009F056C020C0F5018081898342E050E0EB
:1021B000A40EB51E610101E010E012C0F501C0805F
:1021C000D180F6FC03C06FEF7FEF02C0692D70E095
:1021D00042E050E0A40EB51EC6010E9462148C01BC
:1021E0005FE7F52214C0F501C080D180F6FC03C082
:1021F0006FEF7FEF02C0692D70E042E050E0A40E67
:10220000B51EC6010E9457148C0150E8F52AF3FE52
:1022100007C01AC080E290E0B3010E947D14EA94E6
:102220008E2D90E008171907A8F30EC0F601F7FCF1
:102230008591F7FE81916F0190E0B3010E947D14BA
:10224000E110EA94015010400115110579F7EAC038
:10225000943611F0993669F5F7FE08C0F501208132
:1022600031814281538184E090E00AC0F501808190
:1022700091819C01442737FD4095542F82E090E0E6
:10228000A80EB91E9FE6F92257FF09C05095409548
:10229000309521953F4F4F4F5F4FE0E8FE2ACA012E
:1022A000B901A1012AE030E00E94A914D82ED21869
:1022B00040C0953729F41F2D1F7E2AE030E01DC055
:1022C0001F2D197F9F3661F0903720F4983509F063
:1022D000ACC00FC0903739F0983709F0A6C004C0E1
:1022E00028E030E00AC0106114FD146020E130E005
:1022F00004C014FD166020E132E017FF08C0F501AC
:10230000608171818281938144E050E008C0F501D1
:1023100080819181BC0180E090E042E050E0A40E19
:10232000B51EA1010E94A914D82ED2188FE7F82E4D
:10233000F122F6FE0BC05EEFF522D91438F4F4FE5C
:1023400007C0F2FC05C08FEEF82202C01D2D01C0AF
:10235000192DF4FE0DC0FE01ED0DF11D80818033BD
:1023600019F499EEF92208C01F5FF2FE05C003C000
:102370008F2D867809F01F5F0F2DF3FC14C0F0FE3F
:102380000FC01E1510F09D2C0BC09D2C9E0C911A99
:102390001E2D06C080E290E0B3010E947D141F5FF5
:1023A0001E15C0F304C01E1510F4E11A01C0EE247E
:1023B00004FF0FC080E390E0B3010E947D1402FF90
:1023C0001DC001FD03C088E790E00EC088E590E0E5
:1023D0000BC0802F867891F001FF02C08BE201C014
:1023E00080E2F7FC8DE290E0B3010E947D1406C00C
:1023F00080E390E0B3010E947D149A94D914C0F355
:10240000DA94F101ED0DF11D808190E0B3010E949D
:102410007D14DD20A9F706C080E290E0B3010E94A0
:102420007D14EA94EE20C1F743CEF30166817781F3
:10243000CB012B96E2E10C94BF0FA9E0B0E0E3E200
:10244000F2E10C94A70F6A01122FA02EBE2C2BE3F1
:10245000201718F42CE3922E02C0902E9394AE0114
:102460004F5F5F4F27E0092D0E947F13BC018981D8
:10247000E82EFF24C70189709070019711F4ADE236
:1024800009C0B1FE02C0ABE205C0B0FC02C0A0E0D2
:1024900001C0A0E2E3FE3BC0AA2311F423E001C087
:1024A00024E0211710F020E002C0121B212FEB2C9A
:1024B000B4FE02C0322F0AC0F601322F80E202C001
:1024C000819331503323E1F7C20ED11CAA2319F0B6
:1024D000F601A1936F01F6013196E2FE05C09EE47C
:1024E000D6019C9381E404C09EE6D6019C9381E6CC
:1024F00011968C9391833296DF01832F90E202C074
:102500009D9381508823E1F7E30FF11D40C0E2FE67
:1025100042C0AA2311F423E001C024E0211710F0E7
:1025200020E002C0121B212FEB2CB4FE02C0922F20
:102530000AC0F601922F80E202C081939150992344
:10254000E1F7C20ED11CAA2319F0F601A1936F0185
:10255000F6013196E2FE08C089E4D6018C938EE440
:1025600011968C9386E407C089E6D6018C938EE69B
:1025700011968C9386E681833296DF01892F20E2C3
:1025800002C02D9381508823E1F7E90FF11D1082DD
:102590002EEF3FEFAFC0161617061CF041E050E0DB
:1025A00003C0AB014F5F5F4FAA2019F480E090E0B9
:1025B00003C08A2D90E0019620E030E0AA2311F0BC
:1025C00021E030E0240F351F280F391F812F90E0C4
:1025D0002817390714F020E002C0121B212F4B2DC1
:1025E00050E0CA0180719070B4FC0DC0B3FC0BC008
:1025F000F601322F40E202C0419331503323E1F71C
:10260000C20ED11C01C0322FAA2319F0F601A193EA
:102610006F01892B11F0132F0AC0F601132F80E3ED
:1026200002C0819311501123E1F7C30ED11C092D73
:10263000060FBA8090E1892E912C8E209F20E4FE17
:1026400004C0F1E3BF1609F40150101614F001E0C4
:1026500003C0093008F008E09B0177FF02C020E0CA
:1026600030E0CB010196821B930BFE013196E80FFF
:10267000F91F8EE2F82E3B01601A71088A2D90E056
:1026800044275527481B590B8FEF2F3F380719F464
:10269000D601FD926D01621773072CF06216730666
:1026A00014F4808101C080E321503040319624171A
:1026B000350724F0D6018D936D01E6CF2617370735
:1026C00049F4B5E3BB1528F0BB1621F4811491043D
:1026D00009F481E3F6018193D601812F90E202C0D3
:1026E0009C93815011968823D9F7E10FF11D108238
:1026F00020E030E0C9012996EEE00C94C30F2830A9
:1027000008F027E03327DA01990F311D87FD91602A
:1027100000966105710539F432602E5F3D9330E318
:102720002A95E1F708959F3F30F0803871056105E3
:1027300009F03C5F3C5F3D93913008F08068911D4B
:10274000DF93CF931F930F93FF92EF92192F987FF0
:102750009695E92F96959695E90FFF27EE53FF4F33
:1027600099273327EE24FF24A701E7010590089459
:10277000079428F4360FE71EF81E491F511D660FF7
:10278000771F881F991F0694A1F70590079428F4D6
:10279000E70EF81E491F561FC11D770F881F991F8E
:1027A000661F0694A1F70590079428F4F80E491FB8
:1027B000561FC71FD11D880F991F661F771F0694CC
:1027C000A1F70590079420F4490F561FC71FD81F83
:1027D000990F661F771F881F0694A9F7849110959B
:1027E000177041F0D695C79557954795F794E7949C
:1027F0001A95C1F7E8E6F0E06894159015913591C7
:102800006591959105907FE27395E118F10A430B6C
:10281000560BC90BD009C0F7E10CF11E431F561F20
:10282000C91FD01D7EF4703311F48A95E6CFE89469
:10283000015030F0080F0AF40027021708F4202F87
:102840002395022F7A3328F079E37D932A95E9F7CF
:1028500010C07D932A9589F60694979567953795CC
:1028600017951794E118F10A430B560BC90BD009C1
:1028700098F023957E9173957A3308F070E37C93FA
:102880002013B8F77E9170617D9330F0839571E3EA
:102890007D9370E32A95E1F71124EF90FF900F915B
:1028A0001F91CF91DF91992787FD90950895FC01A5
:1028B0000590615070400110D8F7809590958E0F6B
:1028C0009F1F0895FC016150704001900110D8F7DE
:1028D000809590958E0F9F1F0895DC01FC01672F56
:1028E00071917723E1F7329704C07C916D937083E7
:1028F0006291AE17BF07C8F308950F931F93CF934C
:10290000DF938C01EB018B8181FF1BC082FF0DC027
:102910002E813F818C819D812817390764F4E881DD
:10292000F9810193F983E88306C0E885F985802F52
:102930000995892B31F48E819F8101969F838E8327
:1029400002C00FEF1FEFC801DF91CF911F910F91D0
:102950000895FA01AA27283051F1203181F1E89435
:102960006F936E7F6E5F7F4F8F4F9F4FAF4FB1E082
:102970003ED0B4E03CD0670F781F891F9A1FA11D7D
:10298000680F791F8A1F911DA11D6A0F711D811D7E
:10299000911DA11D20D009F468943F912AE0269F43
:1029A00011243019305D3193DEF6CF010895462FA2
:1029B0004770405D4193B3E00FD0C9F7F6CF462F83
:1029C0004F70405D4A3318F0495D31FD40524193EC
:1029D00002D0A9F7EACFB4E0A695979587957795A9
:1029E0006795BA95C9F700976105710508959B0130
:1029F000AC010A2E06945795479537952795BA95B9
:102A0000C9F7620F731F841F951FA01D0895AA1B8D
:102A1000BB1B51E107C0AA1FBB1FA617B70710F0C9
:102A2000A61BB70B881F991F5A95A9F780959095FB
:0A2A3000BC01CD010895F894FFCF1A
:102A3A0074783A2025732074793A20257320747AA1
:102A4A003A2025732067783A2025732067793A203F
:102A5A00257320677A3A2025732064743A202573F7
:102A6A00000000000000000000000102020303034E
:102A7A000304040404040404040505050505050506
:102A8A0005050505050505050506060606060606E5
:102A9A0006060606060606060606060606060606CC
:102AAA0006060606060606060607070707070707B5
:102ABA00070707070707070707070707070707079C
:102ACA00070707070707070707070707070707078C
:102ADA00070707070707070707070707070707077C
:102AEA000707070707070707070808080808080865
:102AFA00080808080808080808080808080808084C
:102B0A00080808080808080808080808080808083B
:102B1A00080808080808080808080808080808082B
:102B2A00080808080808080808080808080808081B
:102B3A00080808080808080808080808080808080B
:102B4A0008080808080808080808080808080808FB
:102B5A0008080808080808080808080808080808EB
:0A2B6A000808080808080808080019
:00000001FF
