:100000000C9434000C9451000C9451000C94510049
:100010000C9451000C9451000C9451000C9451001C
:100020000C9451000C9451000C9451000C9451000C
:100030000C9451000C9451000C9451000C945100FC
:100040000C9451000C9451000C9451000C945100EC
:100050000C9451000C9451000C9451000C945100DC
:100060000C9451000C94510011241FBECFEFD8E026
:10007000DEBFCDBF12E0A0E0B1E0E4E6FCE102C0EB
:1000800005900D92A033B107D9F712E0A0E3B2E0DA
:1000900001C01D92AC33B107E1F70E940D010C9431
:1000A000300E0C9400002F923F924F925F926F920D
:1000B0007F928F929F92AF92BF92CF92DF92EF92F8
:1000C000FF920F931F93DF93CF93CDB7DEB728979F
:1000D0000FB6F894DEBF0FBECDBF6B017C011901D6
:1000E000142F453008F014E061E0862E912CA12CED
:1000F000B12C00E00BC0C501B4012AE030E040E0C3
:1001000050E00E94040A4B015C010F5F011798F355
:10011000C501B4010E94B1079B01AC01C701B60142
:100120000E9487060E94DC0AF62EE72ED82EC92EE2
:1001300000D000D000D0EDB7FEB731962E01089464
:10014000411C511CADB7BEB712965C924E921197EE
:1001500080E091E093838283148315820E94B80A21
:1001600000D06DB67EB60894611C711CEDB7FEB769
:1001700032822182D30113965C924E9212976F2D98
:100180007E2D8D2D9C2DA50194010E94450AF30121
:10019000358324836F2D7E2D8D2D9C2DA5019401FB
:1001A0000E94450A362F462F272F990F660B762F70
:1001B000CB0166234CF4832F819531E0181608F0AB
:1001C00030E02195482F231BD30116964C931697A8
:1001D00017962C930E94B80AEDB7FEB738960FB663
:1001E000F894FEBF0FBEEDBF28960FB6F894DEBFA1
:1001F0000FBECDBFCF91DF911F910F91FF90EF9078
:10020000DF90CF90BF90AF909F908F907F906F9036
:100210005F904F903F902F9008952F923F924F9272
:100220005F926F927F928F929F92AF92BF92CF9286
:10023000DF92EF92FF920F931F93DF93CF93CDB78F
:10024000DEB7C457D0400FB6F894DEBF0FBECDBFA7
:1002500060E071EE80E090E00E94DD010E944A02C1
:1002600088E66BE641E00E947A02CE010196BE016B
:100270006B5F7F4FAE01475F5F4F0E94B5036980A0
:100280007A808B809C80ED80FE800F811885298488
:100290003A844B845C84C401B301A40193010E949D
:1002A00087065B016C01C801B701A80197010E9494
:1002B00087069B01AC01C601B5010E945A067B016D
:1002C0008C01C201B101A20191010E9487069B012C
:1002D000AC01C801B7010E945A060E94100B7B01B5
:1002E0008C01C401B30143E09E01235F3F4F0E9494
:1002F00053006D817E818F81988543E09E01295E48
:100300003F4F0E94530069857A858B859C8543E029
:100310009E012F5D3F4F0E945300C801B70143E08B
:100320009E01255D3F4F0E9453008DB79EB70C97ED
:100330000FB6F8949EBF0FBE8DBFEDB7FEB73196D6
:1003400085E390E08C0F9D1FADB7BEB712969C93CE
:100350008E931197ABE0B1E0B383A2838DE090E080
:100360008C0F9D1F95838483A7E1B0E0AC0FBD1F68
:10037000B783A68381E290E08C0F9D1F91878087D1
:10038000ABE2B0E0AC0FBD1FB387A2870E94B80AF2
:100390008DB79EB70C960FB6F8949EBF0FBE8DBF5B
:1003A000CE01C5960E94170288E893E1E0E9F1E0EA
:1003B0003197F1F70197D1F758CF9B01AC0184E059
:1003C000220F331F441F551F8A95D1F760E074E256
:1003D00084EF90E00E94230A215030403093C50002
:1003E0002093C40088E08093C10086E08093C2001F
:1003F00088EE93E020E931E0F9013197F1F70197B8
:10040000D9F70895982F8091C00085FFFCCF909375
:10041000C6000895FC0107C08091C00085FFFCCF95
:1004200031969093C60090819923B1F708950E9468
:100430000A028091C00085FFFCCF8DE08093C6004A
:100440008091C00085FFFCCF8AE08093C6000895AC
:100450000F931F93DF93CF93CDB7DEB72A970FB6D5
:10046000F894DEBF0FBECDBF8E010F5F1F4FB801E6
:100470004AE050E00E94970AC8010E940A022A96A8
:100480000FB6F894DEBF0FBECDBFCF91DF911F91A5
:100490000F9108951092B90088E48093B8000895F0
:1004A00084EA8093BC008091BC0087FFFCCF089554
:1004B00084E98093BC0008958093BB0084E8809316
:1004C000BC008091BC0087FFFCCF089584EC809332
:1004D000BC008091BC0087FFFCCF8091BB000895D9
:1004E00084E88093BC008091BC0087FFFCCF8091A2
:1004F000BB000895982F84EA8093BC008091BC00D3
:1005000087FFFCCF990F9093BB0084E88093BC00D9
:100510008091BC0087FFFCCF6093BB0084E8809390
:10052000BC008091BC0087FFFCCF4093BB0084E8F7
:100530008093BC008091BC0087FFFCCF84E980934E
:10054000BC000895982F84EA8093BC008091BC0081
:1005500087FFFCCF892F880F8093BB0084E88093AE
:10056000BC008091BC0087FFFCCF6093BB0084E897
:100570008093BC008091BC0087FFFCCF84EA80930D
:10058000BC008091BC0087FFFCCF990F91609093D5
:10059000BB0084E88093BC008091BC0087FFFCCF47
:1005A00084E88093BC008091BC0087FFFCCF8091E1
:1005B000BB0094E99093BC000895982FDA0184EA77
:1005C0008093BC008091BC0087FFFCCF892F880FEF
:1005D0008093BB0084E88093BC008091BC0087FFBF
:1005E000FCCF6093BB0084E88093BC008091BC008A
:1005F00087FFFCCF84EA8093BC008091BC0087FF1A
:10060000FCCF990F91609093BB0084E88093BC006D
:100610008091BC0087FFFCCF30E0422F50E041507A
:10062000504064EC0DC06093BC008091BC0087FF1B
:10063000FCCF8091BB00FD01E30FF11D80833F5F84
:10064000832F90E08417950774F384E88093BC00AF
:100650008091BC0087FFFCCF8091BB00A20FB11D31
:1006600011978C9384E98093BC0008956F927F92D8
:100670008F929F92AF92BF92CF92DF92EF92FF92B2
:100680000F931F9339014A01A0903002B0903102BC
:10069000C0903202D0903302A60195010E94290633
:1006A00023E532E542E25FE30E9487069B01AC014D
:1006B000C601B5010E945A06609330027093310260
:1006C0008093320290933302A0903402B0903502AE
:1006D000C0903602D0903702C401B301A601950143
:1006E0000E94290623E532E542E25FE30E94870685
:1006F0009B01AC01C601B5010E945A066093340209
:10070000709335028093360290933702A09038029E
:10071000B0903902C0903A02D0903B02C801B701B4
:10072000A60195010E94290623E532E542E25FE336
:100730000E9487069B01AC01C601B5010E945A06C2
:10074000609338027093390280933A0290933B028F
:100750001F910F91FF90EF90DF90CF90BF90AF90DF
:100760009F908F907F906F9008952F923F924F921D
:100770005F926F927F928F929F92AF92BF92CF9231
:10078000DF92EF92FF920F931F93DF93CF93CDB73A
:10079000DEB72C970FB6F894DEBF0FBECDBF98879B
:1007A0008F837A8769875C874B8788E66BE3AE0126
:1007B0004F5F5F4F26E00E94DD02798160E02A8171
:1007C00030E0622B732B882777FD8095982F0E944D
:1007D000B10720E030E040E858E30E94870623ECB0
:1007E00035EF4CE151E40E9487067B018C017B814F
:1007F00060E02C8130E0622B732B882777FD809599
:10080000982F0E94B10720E030E040E858E30E94B2
:10081000870623EC35EF4CE151E40E9487065B012B
:100820006C017D8160E02E8130E0622B732B882784
:1008300077FD8095982F0E94B10720E030E040E8D6
:1008400058E30E94870623EC35EF4CE151E40E9407
:1008500087063B014C01C801B70120E030E040EAC7
:1008600050E40E94810718167CF4C801B70126E8FD
:1008700039EC44E95EE30E94290628EF37E84FE7A8
:100880005FE30E94870608C0C801B7012AE939E979
:1008900049E15EE30E9429061B012C01C601B50156
:1008A00020E030E040EA50E40E94810718167CF412
:1008B000C601B5012CE732EF40EF5DE30E945A0616
:1008C0002FEA3FE64FE75FE30E94870608C0C601B4
:1008D000B5012AE037ED43E25CE30E9429065B01A3
:1008E0006C01C401B30120E030E040EA50E40E9412
:1008F000810718167CF4C401B30126EF37E94DEBEC
:100900005EE30E9429062AE134E44EE75FE30E9499
:10091000870608C0C401B3012AE939E949E15EE369
:100920000E9429067B018C01B101C2019501A6013B
:100930000E9436038091300290913102A0913202E0
:10094000B0913302EF81F88580839183A283B383D2
:100950008091340290913502A0913602B091370215
:10096000E985FA8580839183A283B38380913802DD
:1009700090913902A0913A02B0913B02EB85FC853F
:1009800080839183A283B3832C960FB6F894DEBF45
:100990000FBECDBFCF91DF911F910F91FF90EF90D0
:1009A000DF90CF90BF90AF909F908F907F906F908F
:1009B0005F904F903F902F900895A0E0B0E0E3EE5D
:1009C000F4E00C94600ADC012B01FA019C91923056
:1009D00008F439C1EB018881823008F433C19430C6
:1009E00069F4843009F02FC111969C911197898187
:1009F000981709F428C1A8E2B1E025C1843009F4B0
:100A000021C18230A9F4923009F01DC19A01AD01D3
:100A100088E0EA010990AE01E90109929E01815046
:100A2000C1F7E201898111969C918923818308C1D4
:100A3000923009F407C112962D903C901397EB0168
:100A40008A819B811496AD90BD90CD90DC901797D4
:100A5000EC80FD800E811F819101281B390BB901AB
:100A600037FF04C066277727621B730B603271055E
:100A70000CF061C0121613066CF537014801062E02
:100A800004C096948794779467940A94D2F721E0EF
:100A900030E040E050E004C0220F331F441F551FD8
:100AA0006A95D2F721503040404050402E213F21DE
:100AB00040235123211531054105510521F021E045
:100AC00030E040E050E079018A01E628F728082963
:100AD00019293CC0232BD1F1260E371E35014601C2
:100AE000062E04C096948794779467940A94D2F75C
:100AF00021E030E040E050E004C0220F331F441FEB
:100B0000551F6A95D2F721503040404050402A216D
:100B10003B214C215D21211531054105510521F075
:100B200021E030E040E050E059016A01A628B728F2
:100B3000C828D9280BC0821593052CF01C01AA24C3
:100B4000BB24650103C0EE24FF24870111969C910C
:100B5000D20111968C91981709F445C0992339F068
:100B6000A80197012A193B094C095D0906C0A60195
:100B700095012E193F09400B510B57FD08C01182FA
:100B80003382228224833583468357831DC081E0CC
:100B900081833382228288279927DC01821B930B71
:100BA000A40BB50B84839583A683B7830DC0220F56
:100BB000331F441F551F2483358346835783828107
:100BC0009381019793838283248135814681578164
:100BD000DA01C9010197A109B1098F5F9F4FAF4F9A
:100BE000BF4328F30BC0918333822282EA0CFB1CA3
:100BF0000C1D1D1DE482F5820683178383E080832C
:100C0000248135814681578157FF1AC0C901AA271F
:100C100097FDA095BA2F81709070A070B070569516
:100C2000479537952795822B932BA42BB52B84833F
:100C30009583A683B7838281938101969383828370
:100C4000DF0101C0D201CD01CDB7DEB7E2E10C94E6
:100C50007C0AA0E2B0E0EFE2F6E00C946C0A698353
:100C60007A838B839C832D833E834F835887E9E06F
:100C7000EE2EF12CEC0EFD1ECE010196B7010E9466
:100C800033098E010F5E1F4FCE010596B8010E94F9
:100C900033098A8991E089278A8BC701B801AE019F
:100CA000475E5F4F0E94DD040E945E08A096E6E06A
:100CB0000C94880AA0E2B0E0E0E6F6E00C946C0A3E
:100CC00069837A838B839C832D833E834F835887EC
:100CD000F9E0EF2EF12CEC0EFD1ECE010196B701CE
:100CE0000E9433098E010F5E1F4FCE010596B80199
:100CF0000E943309C701B801AE01475E5F4F0E94F1
:100D0000DD040E945E08A096E6E00C94880AA0E24A
:100D1000B0E0EDE8F6E00C94600A69837A838B8397
:100D20009C832D833E834F835887CE010196BE015D
:100D3000675F7F4F0E943309CE010596BE016F5E4B
:100D40007F4F0E9433099985923088F089898230DB
:100D5000C8F0943019F4823051F404C0843029F47E
:100D6000923081F488E291E0C6C0923049F420E0EC
:100D70009A858A89981321E02A87CE010996BBC0FB
:100D8000823049F420E09A858A89981321E02A8BE1
:100D9000CE014196B0C02D843E844F8458886D8822
:100DA0007E888F88988CEE24FF248701AA24BB2498
:100DB000650140E050E060E070E0E0E0F0E0C1019B
:100DC00081709070892BE9F0E60CF71C081D191D45
:100DD0009A01AB012A0D3B1D4C1D5D1D80E090E08A
:100DE000A0E0B0E0E614F7040805190520F481E05E
:100DF00090E0A0E0B0E0BA01A901480F591F6A1FB6
:100E00007B1FAA0CBB1CCC1CDD1C97FE08C081E01C
:100E100090E0A0E0B0E0A82AB92ACA2ADB2A3196DD
:100E2000E032F10549F0660C771C881C991C569439
:100E3000479437942794C3CFFA85EA892B893C8954
:100E40008B859C85280F391F2E5F3F4F17C0CA0125
:100E500081709070892B61F016950795F794E7944F
:100E600080E090E0A0E0B0E8E82AF92A0A2B1B2BEA
:100E700076956795579547952F5F3F4F77FDE7CF5D
:100E80000CC0440F551F661F771F17FD4160EE0C05
:100E9000FF1C001F111F21503040403090E05907C7
:100EA00090E0690790E4790760F32B8F3C8FDB01BA
:100EB000CA018F779070A070B07080349105A10541
:100EC000B10561F447FD0AC0E114F1040105110503
:100ED00029F0405C5F4F6F4F7F4F40781A8EFE17AE
:100EE00011F081E08A8F4D8F5E8F6F8F78A383E042
:100EF000898FCE0149960E945E08A096E2E10C948B
:100F00007C0AA8E1B0E0E7E8F7E00C946C0A69839A
:100F10007A838B839C832D833E834F83588789E01C
:100F2000E82EF12CEC0EFD1ECE010196B7010E94B9
:100F300033098E010F5E1F4FCE010596B8010E9446
:100F400033098985823040F08989823028F0C701D1
:100F5000B8010E94AB0901C08FEF6896E6E00C94DF
:100F6000880AA8E0B0E0E7EBF7E00C94690A9B017F
:100F7000AC0183E08983DA01C9018827B7FD839535
:100F80009927AA27BB27B82E211531054105510500
:100F900019F482E089833AC08823A9F0203080E0E8
:100FA000380780E0480780E8580729F460E070E0DF
:100FB00080E09FEC30C0EE24FF248701E21AF30AA0
:100FC000040B150B02C079018A018EE1C82ED12CC9
:100FD000DC82CB82ED82FE820F831887C801B701C5
:100FE0000E940F0801971816190684F4082E04C0F1
:100FF000EE0CFF1C001F111F0A94D2F7ED82FE8237
:101000000F831887C81AD90ADC82CB82BA82CE0134
:1010100001960E945E082896E9E00C94850AEF92FA
:10102000FF920F931F937B018C0180E0E81680E014
:10103000F80681E0080780E0180788F48FEFE816CB
:10104000F1040105110531F028F088E090E0A0E0FE
:10105000B0E017C080E090E0A0E0B0E012C080E017
:10106000E81680E0F80680E0080781E0180728F01D
:1010700088E190E0A0E0B0E004C080E190E0A0E072
:10108000B0E020E230E040E050E0281B390B4A0B92
:101090005B0B04C016950795F794E7948A95D2F7F1
:1010A000F701E05DFE4F8081281B3109410951099C
:1010B000C9011F910F91FF90EF900895DF92EF9279
:1010C000FF920F931F93FC01E480F5800681178146
:1010D000D1808081823048F480E090E0A0E1B0E0EF
:1010E000E82AF92A0A2B1B2BA5C0843009F49FC0DB
:1010F000823021F4EE24FF24870105C0E114F104BD
:101100000105110519F4E0E0F0E096C062817381F9
:101110009FEF623879070CF05BC022E83FEF261B97
:10112000370B2A3131052CF020E030E040E050E070
:101130002AC0B801A701022E04C07695679557957D
:1011400047950A94D2F781E090E0A0E0B0E004C0B7
:10115000880F991FAA1FBB1F2A95D2F70197A109D3
:10116000B1098E219F21A023B1230097A105B105CC
:1011700021F081E090E0A0E0B0E09A01AB01282BE3
:10118000392B4A2B5B2BDA01C9018F779070A07045
:10119000B07080349105A105B10539F427FF09C06D
:1011A000205C3F4F4F4F5F4F04C0215C3F4F4F4F7C
:1011B0005F4FE0E0F0E02030A0E03A07A0E04A070F
:1011C000A0E45A0710F0E1E0F0E079018A0127C0BD
:1011D0006038710564F5FB01E158FF4FD801C70184
:1011E0008F779070A070B07080349105A105B10523
:1011F00039F4E7FE0DC080E490E0A0E0B0E004C068
:101200008FE390E0A0E0B0E0E80EF91E0A1F1B1F7C
:1012100017FF05C016950795F794E794319687E078
:1012200016950795F794E7948A95D1F705C0EE24B3
:10123000FF248701EFEFF0E06E2F67956627679533
:10124000902F9F77D794DD24D7948E2F8695492FA2
:10125000462B582F5D29B701CA011F910F91FF90AE
:10126000EF90DF900895FC01DB01408151812281E4
:10127000622F6F7770E0221F2227221F9381892F10
:10128000880F822B282F30E0991F9927991F1196DC
:101290009C93119721153105A9F54115510561055B
:1012A000710511F482E037C082E89FEF13969C939A
:1012B0008E9312979A01AB0167E0220F331F441FF0
:1012C000551F6A95D1F783E08C930DC0220F331F11
:1012D000441F551F12968D919C9113970197139659
:1012E0009C938E931297203080E0380780E0480767
:1012F00080E4580758F314962D933D934D935C93D7
:10130000179708952F3F310579F44115510561056F
:10131000710519F484E08C93089564FF03C081E0A3
:101320008C9312C01C9210C02F57304013963C93E0
:101330002E93129783E08C9387E0440F551F661F0E
:10134000771F8A95D1F7706414964D935D936D93D2
:101350007C93179708951F93DC01FB019C919230B9
:1013600008F447C08081823008F443C0943051F4BF
:1013700011961C91843099F58181682F70E0611B72
:1013800071093FC0843021F0923031F48230B9F1DC
:101390008181882389F12DC011961C91119782308B
:1013A000F1F081811817D9F412962D913C91139781
:1013B000828193818217930794F028173907BCF034
:1013C00014968D919D910D90BC91A02D2481358115
:1013D00046815781281739074A075B0718F41123FC
:1013E00041F00AC082179307A407B50740F4112300
:1013F00019F061E070E005C06FEF7FEF02C060E0C0
:1014000070E0CB011F910895629FD001739FF0019E
:10141000829FE00DF11D649FE00DF11D929FF00D84
:10142000839FF00D749FF00D659FF00D9927729FBB
:10143000B00DE11DF91F639FB00DE11DF91FBD0146
:10144000CF0111240895A1E21A2EAA1BBB1BFD0196
:101450000DC0AA1FBB1FEE1FFF1FA217B307E40793
:10146000F50720F0A21BB30BE40BF50B661F771FEB
:10147000881F991F1A9469F76095709580959095CB
:101480009B01AC01BD01CF01089597FB092E0526F4
:101490000ED057FD04D0D7DF0AD0001C38F4509589
:1014A0004095309521953F4F4F4F5F4F0895F6F788
:1014B00090958095709561957F4F8F4F9F4F0895C0
:1014C0002F923F924F925F926F927F928F929F9254
:1014D000AF92BF92CF92DF92EF92FF920F931F9342
:1014E000CF93DF93CDB7DEB7CA1BDB0B0FB6F894F3
:1014F000DEBF0FBECDBF09942A88398848885F8433
:101500006E847D848C849B84AA84B984C884DF80A3
:10151000EE80FD800C811B81AA81B981CE0FD11D87
:101520000FB6F894DEBF0FBECDBFED010895FB01ED
:101530009F01E8944230C4F04532B4F44A3029F4B3
:1015400097FB1EF4909581959F4F642F77270E94FB
:101550001C0E805D8A330CF0895D8193CB0100976E
:10156000A1F716F45DE251931082C9010C94410D6C
:10157000AEE0B0E0EEEBFAE00C946E0A0D891E8945
:1015800086E08C831A8309838FEF9FE79E838D8388
:101590009E01275E3F4FCE0101966F89788DA9018C
:1015A0000E944E0B2F813885020F131FF801108205
:1015B0002E96E4E00C948A0A1ED358F19E5758F1F7
:1015C0009851A0F0E9F0983020F5092E9927660F80
:1015D000771F881F991F0A94D1F712C0062E672F14
:1015E000782F8827985F11F4000C07C0993FB4F357
:1015F0008695779567959395D9F7611D711D811D26
:101600003EF490958095709561957F4F8F4F9F4FD9
:10161000089568940BC309C311F40EF4DAC2CBC267
:10162000EAD2D0F39923D9F3CEF39F57550B87FF16
:10163000D3D20024A0E640EA9001805856959795B1
:1016400028F4805C660F771F881F20F02617370765
:10165000480730F4621B730B840B202931294A2B75
:10166000A69517940794202531254A2758F7660F29
:10167000771F881F20F026173707480730F4620BC2
:10168000730B840B200D311D411DA09581F7B9010D
:10169000842F9158880F969587950895ABE0B0E018
:1016A000E4E5FBE00C94600A3C012B015A01FC01CB
:1016B00017821682838181FD03C06FEF7FEFC6C161
:1016C0009AE0892E1E010894211C311CF30123810C
:1016D000F20123FD859123FF81912F01882309F4D5
:1016E000B2C1853239F423FD859123FF81912F0109
:1016F000853229F490E0B3010E94510DE7CF982F75
:10170000FF24EE249924FFE1FF15D0F09B3269F00D
:101710009C3228F4903259F0933291F40EC09D32ED
:1017200049F0903369F441E024C052E0F52A84E0A6
:10173000F82A28C098E0F92A25C0E0E1FE2A22C054
:10174000F7FC29C0892F80538A3070F4F6FE05C05B
:10175000989C902C1124980E15C0E89CE02C112424
:10176000E80EF0E2FF2A0EC09E3229F4F6FC6BC1AF
:1017700040E4F42A07C09C3619F450E8F52A02C068
:10178000983649F4F20123FD959123FF91912F01A1
:10179000992309F0B8CF892F8554833018F08052EF
:1017A000833038F444E050E0A40EB51E5FE3598363
:1017B0000FC0933631F0933779F0933509F056C066
:1017C00020C0F5018081898342E050E0A40EB51E5F
:1017D000610101E010E012C0F501C080D180F6FC8B
:1017E00003C06FEF7FEF02C0692D70E042E050E070
:1017F000A40EB51EC6010E94360D8C015FE7F522CE
:1018000014C0F501C080D180F6FC03C06FEF7FEFFC
:1018100002C0692D70E042E050E0A40EB51EC60182
:101820000E942B0D8C0150E8F52AF3FE07C01AC068
:1018300080E290E0B3010E94510DEA948E2D90E079
:1018400008171907A8F30EC0F601F7FC8591F7FEFB
:1018500081916F0190E0B3010E94510DE110EA9473
:10186000015010400115110579F7EAC0943611F0C6
:10187000993669F5F7FE08C0F50120813181428172
:10188000538184E090E00AC0F501808191819C0140
:10189000442737FD4095542F82E090E0A80EB91EF2
:1018A0009FE6F92257FF09C0509540953095219544
:1018B0003F4F4F4F5F4FE0E8FE2ACA01B901A10137
:1018C0002AE030E00E947D0DD82ED21840C0953716
:1018D00029F41F2D1F7E2AE030E01DC01F2D197F27
:1018E0009F3661F0903720F4983509F0ACC00FC0F6
:1018F000903739F0983709F0A6C004C028E030E0EE
:101900000AC0106114FD146020E130E004C014FD31
:10191000166020E132E017FF08C0F5016081718197
:101920008281938144E050E008C0F501808191817B
:10193000BC0180E090E042E050E0A40EB51EA101A1
:101940000E947D0DD82ED2188FE7F82EF122F6FED8
:101950000BC05EEFF522D91438F4F4FE07C0F2FC98
:1019600005C08FEEF82202C01D2D01C0192DF4FE16
:101970000DC0FE01ED0DF11D8081803319F499EE4B
:10198000F92208C01F5FF2FE05C003C08F2D8678C4
:1019900009F01F5F0F2DF3FC14C0F0FE0FC01E15E1
:1019A00010F09D2C0BC09D2C9E0C911A1E2D06C074
:1019B00080E290E0B3010E94510D1F5F1E15C0F33D
:1019C00004C01E1510F4E11A01C0EE2404FF0FC07C
:1019D00080E390E0B3010E94510D02FF1DC001FDA4
:1019E00003C088E790E00EC088E590E00BC0802F30
:1019F000867891F001FF02C08BE201C080E2F7FC23
:101A00008DE290E0B3010E94510D06C080E390E0AA
:101A1000B3010E94510D9A94D914C0F3DA94F101E4
:101A2000ED0DF11D808190E0B3010E94510DDD208C
:101A3000A9F706C080E290E0B3010E94510DEA943C
:101A4000EE20C1F743CEF30166817781CB012B965F
:101A5000E2E10C947C0AFC01059061507040011099
:101A6000D8F7809590958E0F9F1F0895FC016150C7
:101A7000704001900110D8F7809590958E0F9F1FB0
:101A80000895DC01FC01672F71917723E1F732970C
:101A900004C07C916D9370836291AE17BF07C8F349
:101AA00008950F931F93CF93DF938C01EB018B81EC
:101AB00081FF1BC082FF0DC02E813F818C819D81E3
:101AC0002817390764F4E881F9810193F983E883E1
:101AD00006C0E885F985802F0995892B31F48E8120
:101AE0009F8101969F838E8302C00FEF1FEFC80175
:101AF000DF91CF911F910F910895FA01AA27283005
:101B000051F1203181F1E8946F936E7F6E5F7F4FCA
:101B10008F4F9F4FAF4FB1E03ED0B4E03CD0670F46
:101B2000781F891F9A1FA11D680F791F8A1F911D99
:101B3000A11D6A0F711D811D911DA11D20D009F4E9
:101B400068943F912AE0269F11243019305D31932B
:101B5000DEF6CF010895462F4770405D4193B3E014
:101B60000FD0C9F7F6CF462F4F70405D4A3318F0BB
:101B7000495D31FD4052419302D0A9F7EACFB4E06C
:101B8000A6959795879577956795BA95C9F7009724
:101B90006105710508959B01AC010A2E06945795C5
:101BA000479537952795BA95C9F7620F731F841F1C
:101BB000951FA01D08959F3F31F0915020F4879507
:101BC00077956795B795880F911D9695879597F9A5
:101BD00008959FEF80EC089591505040660F771F55
:101BE000881FD2F7089557FD9058440F551F59F09C
:101BF0005F3F71F04795880F97FB991F61F09F3FFA
:101C000079F087950895121613061406551FF2CF22
:101C10004695F1DF08C0161617061806991FF1CF72
:101C200086957105610508940895E894BB27662799
:101C30007727CB0197F90895AA1BBB1B51E107C079
:101C4000AA1FBB1FA617B70710F0A61BB70B881F4C
:101C5000991F5A95A9F780959095BC01CD010895DB
:041C6000F894FFCF26
:101C64002525642E2525302564640061783A2025D5
:101C7400732061793A20257320617A3A20257320F4
:101C84004D61673A20257300000000000000000049
:101C9400000102020303030304040404040404040F
:101CA40005050505050505050505050505050505E0
:101CB40006060606060606060606060606060606C0
:101CC40006060606060606060606060606060606B0
:101CD4000707070707070707070707070707070790
:101CE4000707070707070707070707070707070780
:101CF4000707070707070707070707070707070770
:101D0400070707070707070707070707070707075F
:101D1400080808080808080808080808080808083F
:101D2400080808080808080808080808080808082F
:101D3400080808080808080808080808080808081F
:101D4400080808080808080808080808080808080F
:101D540008080808080808080808080808080808FF
:101D640008080808080808080808080808080808EF
:101D740008080808080808080808080808080808DF
:101D840008080808080808080808080808080808CF
:00000001FF
